:0400000002003B328D
:01000B0032C2
:0100130032BA
:03001B0002040DCF
:0100230032AA
:03002B000204F2DA
:030033000203596C
:07009400E4F508F509E4F5AD
:05009B000AF50BE4F57D
:0500A0000CF50DE4F574
:0500A5000EF50FE4F56B
:0500AA0010F511E4F562
:0500AF0012F513E4F559
:0500B40014F515E4F550
:0500B90016F517E4F547
:0500BE0018F519E4F53E
:0500C3001EF51FE4F52D
:0300C80024F525F7
:0300CB00020036FA
:050036001200CE80FE67
:0A00CE0053D9BFC2A2E4F51CF51DD2
:0500D800F51AF51B12F2
:0600DD0001791201F1128D
:0800E30001AFD2AF12022D1291
:0C00EB00023FD2A3C297D2A0C2947508B5
:0700F70001E4F50975A30007
:0A00FE007401B50E06E4B50F028090
:0101080002F4
:0201090080F381
:03010B0075A3FEDB
:0A010E007402B50E06E4B50F02807E
:0101180002E4
:0201190080F371
:03011B0075A3B811
:0A011E007403B50E06E4B50F02806D
:0101280002D4
:0201290080F361
:09012B00E4F50EF50FD294E4F5A1
:0601340008F509C2A175E7
:08013A000A01E4F50B75A3A016
:0A0142007401B51006E4B511028047
:01014C0002B0
:02014D0080F33D
:03014F0075A30095
:0A0152007402B51006E4B511028036
:01015C0002A0
:02015D0080F32D
:09015F00E4F510F511D2A1E4F55C
:030168000AF50B8A
:07016B00E51E451F60FA12BA
:07017200034143E60280F2A5
:0D01790075B28375B90043B9807A007B0030
:0E018600C3EA9448EB6480948050070ABA00E4
:04019400F10B80EEFD
:0301980043B9C0A8
:0A019B00742055B9FABA200280035F
:0301A5000080F3E4
:0701A80075A90275EF0422A6
:0E01AF0075F1FF75F2FF75F3FF75F4FF75A48F
:0E01BD00FF75A5FF75A6FF75A7FF75D4007529
:0E01CB00D50075D60075E10275E240D2A1D2D2
:0E01D90094D2A6D2A7D285C286C283C287C2A4
:0A01E70084C292C2A3D2A0C29722E4
:0E01F1005388BF538EF6438E02758B06758DB4
:0E01FF000653892F43892053887F438840D2BE
:0A020D00BB759A8043E640D2AB2295
:0E02170075C800538ECFE4F5CAF5CB75CCFF49
:0802250075CDFFD2ADD2CA2253
:0E022D00D294D2A1D2A675A15075F80175A287
:04023B0005D2AE2218
:0A023F00750801E4F509C29475A3E7
:0102490008AC
:0A024A007401B50E06E4B50F028042
:0102540002A7
:0202550080F334
:0302570075A3008C
:0A025A007402B50E06E4B50F028031
:010264000297
:0202650080F324
:0302670075A30478
:0A026A007403B50E06E4B50F028020
:010274000287
:0202750080F314
:07027700E50E24FDF50EE584
:0A027E000F34FFF50FD294C29475FF
:02028800A319B8
:0A028A007401B50E06E4B50F028002
:010294000267
:0202950080F3F4
:0302970075A3004C
:0A029A007402B50E06E4B50F0280F1
:0102A4000257
:0202A50080F3E4
:0302A70075A30F2D
:0A02AA007403B50E06E4B50F0280E0
:0102B4000247
:0202B50080F3D4
:0702B700E50E24FDF50EE544
:0A02BE000F34FFF50FD294C29475BF
:0202C800A31081
:0A02CA007401B50E06E4B50F0280C2
:0102D4000227
:0202D50080F3B4
:0302D70075A3000C
:0A02DA007402B50E06E4B50F0280B1
:0102E4000217
:0202E50080F3A4
:0302E70075A301FB
:0A02EA007403B50E06E4B50F0280A0
:0102F4000207
:0202F50080F394
:0702F700E50E24FDF50EE504
:0902FE000F34FFF50FD294E4F572
:0403070008F50922CA
:0A030B00750A01E4F50B75A14075B9
:07031500A205C2A175A3A01F
:0A031C007401B50E06E4B50F02806F
:0103260002D4
:0203270080F361
:0303290075A300B9
:0A032C007402B50E06E4B50F02805E
:0103360002C4
:0203370080F351
:08033900D2A1E4F50AF50B2244
:0B03410075A14075A200750C01E4F5E9
:07034C000DC2A6E4F512F555
:040353001375A30279
:0203570080FE26
:0E035900C0E0C0F0C002C003C0D075D0007478
:090367008055F8FABA8002800307
:030370000203E4A1
:0C037300C2FFAAA37B00C3E4950A7480BB
:0B037F00850BF063F08095F050250521
:06038A0010E4B5100205AD
:01039000115B
:07039100E510451170068A1A
:050398001A8B1B8047D9
:05039D008A1C8B1D7598
:0703A2000A01E4F50BE4F58C
:0503A9000CF50D80368B
:0A03AE00C3E4950874808509F0632C
:0A03B800F08095F0500A050EE4B540
:0603C2000E20050F801C57
:0A03C800C3E4950C7480850DF0630A
:0A03D200F08095F0500A0512E4B522
:0603DC0012060513800269
:0203E200D2A2A5
:0A03E400744055F8FABA4002C2FE58
:0A03EE00742055F8FABA2002C2FD8F
:0A03F800741055F8FABA1002C2FCA6
:0B040200D0D0D003D002D0F0D0E03208
:0E040D00C0E0C002C003C004C005C006C007A6
:0C041B00C000C001C0D075D000C28FE549
:06042700164517702105C7
:06042D0014E4B514020501
:0104330015B3
:0A043400C3E514940CE515648094F0
:06043E008050030204DD02
:07044400751601E4F5170233
:02044B0004DDCE
:0A044D00C3E5189401E519648094DA
:0A04570080500A0518E4B5180205EC
:010461001981
:0204620080799F
:07046400C2AEAA08AB09AC0F
:0A046B000CAD0DA294E433FE7F00F7
:0A047500A2A6E433F8E4F9F508F557
:04047F0009F50CF57A
:0A0483000DD294D2A6C2A1750A01A1
:0C048D00E4F50B75A14075A20575A300F5
:0A04990030FFFD85A31C751D00C295
:0404A300FF75A3003E
:0A04A70030FFFD85A31A751B00C28B
:0904B100FFD2A1E4F50AF50B8A63
:0404BA00088B098C16
:0A04BE000C8D0DEE4F24FF9294E820
:0C04C8004924FF92A6D2AE751E01E4F597
:0804D4001F53E6FDE4F518F5E5
:0104DC001906
:0E04DD00D0D0D001D000D007D006D005D0047A
:0704EB00D003D002D0E03283
:0704F200C2CFB287B28432D1
:06006A00E478FFF6D8FD6A
:080048007900E94400601B7A15
:05005000009004FD78A2
:030055000075A093
:0A00580000E493F2A308B8000205CB
:08006200A0D9F4DAF275A0FF49
:080070007800E84400600A7901
:030078000075A070
:06007B0000E4F309D8FCCB
:080081007800E84400600C79EE
:0B00890000900000E4F0A3D8FCD9FABE
:03003B00758125A7
:0A003E001204F9E5826003020036A7
:0404F90075820022E6
:00000001FF
