:03000000020008F3
:0300610002000397
:0500030012006480FE04
:0A00640053D9BF12007A1200A51252
:08006E0000C5120106D2AF1219
:02007600010A7D
:0200780080FE08
:0E007A0075F1FF75A4FB75D40775F27F75A5AF
:0E0088007E75D57F75F3FF75A6CB75D6FF7517
:0E009600F30175A6CA75D6FF75E10775E24045
:0100A4002239
:0B00A50043B20375B90043B9807A64D0
:0900B0008A031AEB70FA43B9C08F
:0C00B900E5B930E5FB85A9A943A90222A6
:0600C50075960175970815
:0B00CB00E59620E7FB75960775970F80
:0B00D600E59620E7FB75960975970F73
:0B00E100E59620E7FB75960B75970471
:0E00EC00E59620E7FB75D7C043D72075960F29
:0300FA0075978077
:0900FD00E59620E7FB43E6022230
:0401060043EF02229F
:06010A00759601759700D7
:06011000E59620E7FB224A
:0E0A1C0012010002000000404E220100000006
:0E0A2A000000000109022000010100800F09F8
:0E0A38000400000200000000070581024000DB
:0E0A4600050705020240000500000000000048
:0E0A5400000000000000000000000000000094
:030A620000000091
:07011600E53D453E700BE5DD
:06011D003F45407005AAF9
:0401230022BA0205F5
:050127007508028024B0
:06012C00759600853C976A
:0C013200E59620E7FBEA7007E53C60035F
:03013E0075220126
:0A0141007401B52207E53C70037558
:02014B0022018F
:03014D0075080032
:0401500085083322C9
:07015400E53F4540700EE598
:0A015B0022FA6009BA0109E53D45EA
:030165003E6003F6
:0301680075080215
:0C016B00741F5539FA6005BA02208005A7
:05017700750802801C68
:07017C00E53B453C700E85D8
:060183003D82853E83125F
:0701890003C785820880080E
:05019000750802800368
:03019500750802E8
:040198008508332281
:07019C00E53F4540700EE550
:0A01A30022FA6009BA0109E53D45A2
:0301AD003E6003AE
:0301B000750802CD
:0C01B300741F5539FA6005BA022080055F
:0501BF00750802801C20
:0701C400E53B453C700E8590
:0601CB003D82853E831217
:0701D1000425858208800867
:0501D800750802800320
:0301DD00750802A0
:0401E0008508332239
:0701E400E53D453E700AE510
:0601EB003F45407004E5F1
:0301F10022700574
:0501F4007508028022E5
:0C01F900900A2DE493FAC3953C50057564
:040205000802801259
:09020900E53C7005752201800935
:08021200853C821204A28582E2
:01021A0008DB
:04021B0085083322FD
:01021F0022BC
:09022000E53B453C701B7402B57E
:080229003F06E4B5400280022B
:02023100800E3D
:0A023300E522FA6009BA010BE53D6F
:04023D00453E6005D5
:05024100750802806356
:0C024600741F5539FA600ABA0102801ECC
:05025200BA023F80210B
:07025700E53D453E60057521
:04025E0008028035DD
:05026200753800852441
:0402670037E525450D
:05026B0037F537802784
:08027000753700753800801F8E
:0702780075370075380085A1
:06027F003D82853E831262
:0C0285000483AA82BA030B74014537F50C
:03029100378003B0
:03029400750802E8
:0502970075080175343B
:03029C003775357E
:05029F000075364075FA
:0502A4002F027530007F
:0402A900850833226F
:0702AD00AA3BBA0102800523
:0502B400BA026A80257A
:0802B900750912E4F50AC3E522
:0A02C1003F9412E5409400500685BA
:0302CB003F098563
:0202CE00400AE4
:0402D00075341C75F0
:0302D400350A7573
:0702D7003680750801804329
:0C02DE00900A2DE493FAC3953C5005757E
:0402EA000802803353
:0902EE00900A30E493FA8A58905A
:0802F7000A31E493FA8A5785ED
:0302FF0057098517
:04030200580AC3E5ED
:040306003F9509E531
:06030A0040950A50068533
:030310003F09851D
:02031300400A9E
:0403150075342E7598
:03031900350A752D
:05031C003680750801A8
:0403210085092F8596
:030325000A308516
:0303280008332275
:0A032B007401B53F06E4B5400280FE
:0103350002C5
:02033600801134
:07033800E53D453E700BE5B9
:06033F003B453C7005E5A2
:0403450022FA700523
:0503490075080280238D
:0A034E00BA01147537007538007508
:03035800343775C2
:03035B00350075F5
:07035E003640750801800C18
:040365007534337543
:03036900350A75DD
:05036C00368075080158
:07037100752F0175300085B6
:0303780008332225
:09037B00E53B453C70147401B52A
:080384003F06E4B540028002CF
:02038C008007E8
:07038E007402B52202800594
:0503950075080280293B
:09039A00AA267B001ABAFF011B20
:0A03A300C3EA953DEB953E50057549
:0403AD0008028012B0
:0403B10075342C75FE
:0303B5003500759B
:0603B8003640752F0175AF
:0503BE0030007508018C
:0403C3008508332254
:0703C700AA82AB8375968E3C
:0E03CE00E59620E7FBAC9775960E8A0574EF56
:0303DC005DF59735
:0D03DF00E59620E7FBBA0205BB000280187E
:0C03EC00BA8127BB00247596117597108C
:0C03F800E59620E7FB7546037A008014B0
:06040400759614759720A7
:0C040A00E59620E7FB7551037A008002A4
:020416007A0268
:0504180075960E8C97A3
:08041D00E59620E7FB8A82222C
:07042500AA82AB8375968EDD
:0E042C00E59620E7FBAC9775960E8A0574EFF7
:03043A005DF597D6
:0D043D00E59620E7FBBA0205BB000280181F
:0C044A00BA8127BB0024759611759740FD
:0C045600E59620E7FB7546007A00801454
:06046200759614759780E9
:0C046800E59620E7FB7551007A00800249
:020474007A020A
:0504760075960E8C9745
:08047B00E59620E7FB8A8222CE
:0C048300AA82AB83BA0205BB0002800A0B
:0A048F00BA810BBB0008AA468006E4
:04049900AA518002E2
:02049D007A02E1
:03049F008A82222C
:0804A200AA827B0075282E756B
:0304AA00290A75A7
:0904AD002A80900A3375F08012D8
:0804B60009FCFCB50202800400
:0404BE007B028047F6
:0A04C20074042528FCE43529FDAE82
:0C04CC002A8C828D838EF01209FCFC8CBF
:0504D8002675270190CC
:0A04DD00002D75F040E41209E390D1
:0A04E700002C75F040E41209E375E3
:0C04F1002B0090002B75F040C002C003EF
:0B04FD0012050CD003D0027522028A09
:0105080021D1
:030509008B8222C0
:0B050C00AA82AB83ACF07D0075968ED8
:0E051700E59620E7FBAE9774022AFAE43BFB60
:0E0525008A828B838CF01209FCFA6007E4BA1C
:03053300010104BF
:02053600805DE6
:0605380075960E75970197
:0B053E00E59620E7FB7596127597A06C
:0A054900E59620E7FB7542007543BC
:08055300007544407545007578
:0A055B00418175460075960E7597F4
:010565000293
:0B056600E59620E7FB75961575978061
:0A057100E59620E7FB754D00754E7E
:08057B0000754F40755000753A
:0A0583004C0275510075960E759735
:01058D00006D
:07058E00E59630E70480F957
:020595007D02E5
:0505970075960E8E9721
:08059C00E59620E7FB8D8222A9
:0A05A400AA82E557455860707420E4
:0C05AE002A543FF5964396C0E4FAFBE5A2
:0A05BA005724FFFCE55834FFFDE470
:0405C400F55CF55D90
:0905C800C3E55C9CE55D9D502A31
:0A05D100E59620E7FBE55C2559F8EC
:0605DB00E55D355AF9AEA2
:0C05E1005B888289838EF0E5971209E3A5
:0705ED00055CE4B55C0205AA
:0105F4005DA9
:0605F500AA5CAB5D80CDA5
:0405FB00AA5CAB5DEE
:0B05FF00E59620E7FBEA2559FAEB35F2
:0A060A005AFBAC5B8A828B838CF0F4
:08061400E5971209E375960059
:01061C0022BB
:0A061D00AA82E5574558603C74209E
:020627002AFAAD
:0E062900E59620E7FB743F5AF5967A007B00B9
:0A063700C3EA9557EB95585021EAED
:080641002559FCEB355AFDAE12
:0C0649005B8C828D838EF01209FCF5970B
:0C065500E59620E7FB0ABA00D90B80D61E
:010661002276
:0C066200C020C0E0C0F0C082C083C00215
:0E066E00C003C004C005C006C007C000C00124
:08067C00C0D075D00075968610
:0A068400E59620E7FBAA9775968221
:0A068E00E59620E7FBAB9775968414
:0E069800E59620E7FBAC97EA30E20EC003C007
:0B06A60004120825D004D003750E01DB
:0E06B100EB30E00BC003C004120871D004D07F
:0106BF000337
:0B06C000EB30E107C0041206EFD0048D
:0706CB00EC30E2031207EF1F
:0E06D200D0D0D001D000D007D006D005D00483
:0D06E000D003D002D083D082D0F0D0E0D083
:0206ED002032B9
:0506EF00750F007559B4
:0506F4000F755A0075AE
:0706F9005B40755701E4F5B9
:09070000587582011205A4E4B54C
:040709000F02800E4D
:07070D007402B50F02800A1F
:070714007403B50F0B800612
:03071B00020725AD
:03071E0002073A95
:030721000207616B
:0107240022B2
:04072500755910757D
:060729005A00755B4075EB
:09072F005704E4F558758201023B
:0207380005A416
:05073A00751400755963
:05073F0014755A00755D
:070744005B40755701E4F56D
:0C074B00587582011205A4A292E433F557
:0407570096851497D8
:06075B00E59620E7FB22F9
:0A076100751500751600A287E43339
:0A076B00FAA286E433FB75591575F8
:060775005A00755B40759F
:0A077B005701E4F558758201C00231
:07078500C0031205A4755921
:05078C0016755A00750E
:070791005B40755701E4F520
:0C079800587582011205A4D003D0027431
:0C07A40001B5150AA284E433FAA283E434
:0207B00033FB19
:0907B200A285E433F59675970168
:0A07BB00E59620E7FB8B9685169764
:0A07C500E59620E7FB8A9675970180
:0907CF00E59620E7FB7BD47C30A9
:0907D8008B058C061BBBFF011C04
:0807E100ED4E70F38A96F597C6
:0607E900E59620E7FB226B
:0507EF007517007559AB
:0507F40017755A0075A5
:0707F9005B40755701E4F5B8
:0A080000587582021205A47401B5B8
:05080A001703020810B5
:01080F0022C6
:040810007559187589
:060814005A00755B4075FF
:09081A005704E4F558758202024E
:02082300061DB0
:080825007A217B007C407D0D6F
:0E082D008A828B838CF0E41209E3A3AA82ABCB
:0A083B0083DDEF75220075230075C0
:060845002501753300756A
:06084B002E00753140751E
:060851003200754603753C
:060857004200754300752C
:06085D005103754D00750A
:080863004E0075960175970027
:06086B00E59620E7FB22E8
:0608710075960E7597005C
:08087700E59620E7FB75969160
:0E087F00E59620E7FBE597FA30E41175961137
:03088D00759780DC
:0A089000E59620E7FB753300750EB6
:01089A00025B
:0A089B00EA30E2117596117597001E
:0A08A500E59620E7FB753300750EA1
:0108AF000246
:0708B000EA20E003020979D0
:0408B70075593975C1
:0608BB005A00755B407558
:0908C1005708E4F5587582001295
:0508CA0005A4AA3EABED
:0408CF003D8B3E8A95
:0408D3003DAA3CAB53
:0408D7003B8B3C8A91
:0408DB003BAA40AB49
:0408DF003F8B408A81
:0A08E3003F74F05539FB6008BB803C
:0308ED0002804145
:0308F0000209609A
:0708F300AB3ABB01028023B8
:0508FA00BB03028019A0
:0508FF00BB0502800FA3
:05090400BB0702802387
:05090900BB090280148F
:05090E00BB0B1B80146F
:05091300120116804BEB
:050918001201548046AD
:05091D0012019C804165
:050922001201E4803C1D
:0509270012021F8037E1
:05092C0075330280326A
:07093100AB3ABB0002800F8E
:05093800BB0602800F68
:05093D00BB0802800F61
:05094200BB0A16800F46
:050947001202208017E0
:05094C001202AD801253
:0509510012032B800DD4
:0509560012037B800884
:05095B0075330280036A
:03096000753302EA
:0A0963007A407402B533057A60751E
:02096D00330055
:05096F007596118A9746
:05097400E59620E7FB01
:0A0979007A007401B53362AB2FACB5
:0C09830030C374409BE49C400F8B057552
:08098F002F007530007A087595
:040997003300800E9B
:0C099B007D40EB24C0FBEC34FFFC8B2FF4
:0209A7008C3092
:0609A9008D577558008512
:0309AF0034598533
:0309B200355A852E
:0A09B500365B758200C002C0051217
:0C09BF00061DD005D002ED2534FDE43506
:0509CB0035FBAC368D88
:0409D000348B358CA3
:0909D400364302027596118A9760
:0509DD00E59620E7FB98
:0109E20022F2
:06003700E478FFF6D8FD9D
:080015007900E94400601B7A48
:05001D0000900A657867
:030022000075A0C6
:0A00250000E493F2A308B8000205FE
:08002F00A0D9F4DAF275A0FF7C
:0E09E30020F71030F6118883A88220F507F661
:0509F100A883758300DE
:0109F60022DE
:0309F700F280F794
:0209FA00F022E9
:08003D007800E84400600A7934
:030045000075A0A3
:0600480000E4F309D8FCFE
:08004E007800E84400600C7921
:0B00560000900000E4F0A3D8FCD9FAF1
:0300080075815DA2
:0A000B00120A18E5826003020003E8
:0E09FC0020F71430F6148883A88220F507E651
:060A0A00A88375830022A1
:030A1000E280F78A
:030A1300E4932247
:020A1600E022DC
:040A180075820022C1
:00000001FF
