:03000000020008F3
:07006100E4F508F509E4F5E0
:050068000AF50BE4F5B0
:05006D000CF50DE4F5A7
:040072000EF50F7503
:06007600BD8075BE81751E
:06007C00BF8275C0837510
:06008200C18775C28875FC
:06008800C38975C48A75EE
:06008E00C58B75C68C75E0
:06009400C78D75C88E75D2
:06009A00C98F75CA9075C4
:0600A000CB9175CC9275B6
:0600A600CD9375CE9475A8
:0600AC00CF9575D096759A
:0600B200D19775D298758C
:0600B800D39975D49A757E
:0600BE00D59B75D69C7570
:0600C400D79D75D89E7562
:0600CA00D99F75DAA07554
:0600D000DBA175DCA17547
:0600D600DDA275DEA2753B
:0600DC00DFA375E0A3752F
:0600E200E1A475E2A57522
:0600E800E3A675E4A77514
:0600EE00E5A875E6A97506
:0600F400E7AA75E8B075F3
:0600FA00E9B175EAB275E0
:06010000EBB375ECB675CF
:06010600EDB775EEB875BF
:06010C00EFB975F0BA75B1
:06011200F1BB75F2BC75A3
:06011800F3BD75F4BE7595
:06011E00F5C075F6C17585
:06012400F7C275F8C37577
:06012A00F9C475FAC57569
:06013000FBC675FCC8755A
:06013600FDC975FECA754B
:06013C00FFCB7500CC753D
:0601420001CD7502D0752D
:0601480003D17504D4751B
:06014E0005D57506D6750B
:0601540007D77508D875FD
:06015A0009D9750ADA75EF
:060160000BDB750CDC75E1
:060166000DDD750EDE75D3
:06016C000FE07510E175C3
:0601720011E27512E475B4
:0601780013E67514E775A3
:06017E0015E87516E97595
:0601840017EA7518EB7587
:06018A0019EC751AED7579
:060190001BEE751CEF756B
:060196001DF0751EF1755D
:06019C001FF27520F3754F
:0601A20021F47522F67540
:0601A80023F77524F87531
:0601AE0025F97526FA7523
:0601B40027FB7528FC7515
:0601BA0029FD752AFE7507
:0501C0002BFFD22CD240
:0401C5002DD22ED237
:0401C9002FD230D22F
:0401CD0031D232D227
:0401D10033D234D21F
:0401D50035D236D217
:0401D90037D238D20F
:0401DD0039D23AD207
:0401E1003BD23CD2FF
:0401E5003DD23ED2F7
:0401E9003FD240D2EF
:0401ED0041D242D2E7
:0401F10043D244D2DF
:0401F50045D246D2D7
:0401F90047D248D2CF
:0401FD0049D24AD2C7
:040201004BD24CD2BE
:040205004DD24ED2B6
:040209004FD250D2AE
:04020D0051D252D2A6
:0402110053D254D29E
:0402150055D256D296
:0402190057D258D28E
:04021D0059D25AD286
:040221005BD25CD27E
:040225005DD25ED276
:040229005FD260D26E
:04022D0061D262D266
:0402310063D264D25E
:0402350065D266D256
:0402390067D268D24E
:04023D0069D26AD246
:040241006BD26CD23E
:040245006DD26ED236
:040249006FD270D22E
:04024D0071D272D226
:0402510073D274D21E
:0402550075D276D216
:01025900772D
:03062D00020003C5
:0500030012063080FE32
:070630005309BF1206471237
:06063700066A1207211201
:06063D00074E12085012E6
:02064300089815
:0206450080FE35
:0706470075EA8375EF004323
:04064E00EF807A645B
:090652008A031AEB70FA43EFC0B1
:0A065B00742055EFFABA20F875E696
:0506650002751C0422D7
:07066A00751EFF751FFF75EF
:0606710020FF7521FF755A
:06067700E1FF75E2FF75D2
:06067D00E3FF75E4FF75C8
:060683000400750500757E
:0606890006007510027569
:02068F00114018
:09069100E5D020E7FB75D0A1754E
:02069A00D1018C
:09069C00E5D020E7FB75D0947550
:0206A500D10181
:0906A700E5D020E7FB75D0A67533
:0206B000D10176
:0906B200E5D020E7FB75D0A77527
:0206BB00D1016B
:0906BD00E5D020E7FB75D085753E
:0206C600D10160
:0906C800E5D020E7FB75D0867532
:0206D100D10056
:0906D300E5D020E7FB75D083752A
:0206DC00D1004B
:0906DE00E5D020E7FB75D087751B
:0206E700D10040
:0906E900E5D020E7FB75D0847513
:0206F200D10035
:0906F400E5D020E7FB75D09275FA
:0206FD00D1002A
:0906FF00E5D020E7FB75D0A375DE
:02070800D1001E
:09070A00E5D020E7FB75D0A075D5
:02071300D10112
:09071500E5D020E7FB75D09775D3
:03071E00D10022E5
:09072100E5D020E7FB75D09475CA
:02072A00D101FB
:09072C00E5D020E7FB75D0A175B2
:02073500D101F0
:09073700E5D020E7FB75D0A675A2
:06074000D10175DC5075CB
:06074600240175DE05D25E
:02074C003C224D
:06074E00750801E4F50945
:09075400E5D020E7FB75D0947597
:05075D00D10075E00869
:0A0762007401B50C06E4B50D028029
:01076C00028A
:02076D0080F317
:03076F0075E00032
:0A0772007402B50C06E4B50D028018
:01077C00027A
:02077D0080F307
:03077F0075E0041E
:0A0782007403B50C06E4B50D028007
:01078C00026A
:02078D0080F3F7
:07078F00E50C24FDF50CE56B
:050796000D34FFF50D1C
:09079B00E5D020E7FB75D0947550
:0207A400D10181
:0907A600E5D020E7FB75D0947545
:0507AF00D10075E01906
:0A07B4007401B50C06E4B50D0280D7
:0107BE000238
:0207BF0080F3C5
:0307C10075E000E0
:0A07C4007402B50C06E4B50D0280C6
:0107CE000228
:0207CF0080F3B5
:0307D10075E00EC2
:0A07D4007403B50C06E4B50D0280B5
:0107DE000218
:0207DF0080F3A5
:0707E100E50C24FDF50CE519
:0507E8000D34FFF50DCA
:0907ED00E5D020E7FB75D09475FE
:0207F600D1012F
:0907F800E5D020E7FB75D09475F3
:05080100D10075E010BC
:0A0806007401B50C06E4B50D028084
:0108100002E5
:0208110080F372
:0308130075E0008D
:0A0816007402B50C06E4B50D028073
:0108200002D5
:0208210080F362
:0308230075E0017C
:0A0826007403B50C06E4B50D028062
:0108300002C5
:0208310080F352
:07083300E50C24FDF50CE5C6
:05083A000D34FFF50D77
:09083F00E5D020E7FB75D09475AB
:06084800D101E4F508F502
:02084E0009227D
:07085000750A01E4F50B75C8
:05085700DC4075DE0528
:09085C00E5D020E7FB75D0A17581
:05086500D10075E0A0C8
:0A086A007401B50C06E4B50D028020
:010874000281
:0208750080F30E
:0308770075E00029
:0A087A007402B50C06E4B50D02800F
:010884000271
:0208850080F3FE
:09088700E5D020E7FB75D0A17556
:06089000D101E4F50AF5B8
:020896000B2233
:020898007A00E4
:03089A00BA400061
:0A089D00500FEA243DF87600EA242B
:0708A7007DF876000A80ECE9
:0908AE00E5D020E7FB75D00175CF
:0208B700D10866
:0908B900E5D020E7FB75D00775BE
:0208C200D1075C
:0908C400E5D020E7FB75D00975B1
:0208CD00D10751
:0908CF00E5D020E7FB75D00B75A4
:0508D800D1077507E0E7
:0908DD00E5D020E7FB75D00F7592
:0608E600D180431302D291
:0108EC003BD0
:0908ED00E5D020E7FB75D0017590
:0308F600D101220B
:07025A0075310075320075DB
:0602610033007578807582
:060267007981757A8275B1
:06026D007B83757C8775A0
:060273007D88757E89758F
:060279007F8A75808B7581
:06027F00818C75828D7573
:06028500838E75848F7565
:06028B0085907586917557
:0602910087927588937549
:060297008994758A95753B
:06029D008B96758C97752D
:0602A3008D98758E99751F
:0602A9008F9A75909B7511
:0602AF00919C75929D7503
:0602B500939E75949F75F5
:0602BB0095A07596A175E7
:0602C10097A17598A275DB
:0602C70099A2759AA375CF
:0602CD009BA3759CA475C3
:0602D3009DA5759EA675B5
:0602D9009FA775A0A875A7
:0602DF00A1A975A2AA7599
:0602E500A3B075A4B17581
:0602EB00A5B275A6B37573
:0602F100A7B675A8B77561
:0602F700A9B875AAB97553
:0602FD00ABBA75ACBB7545
:06030300ADBC75AEBD7536
:06030900AFBE75B0C07527
:06030F00B1C175B2C27518
:06031500B3C375B4C4750A
:06031B00B5C575B6C675FC
:06032100B7C875B8C975EC
:06032700B9CA75BACB75DE
:06032D00BBCC75BCCD75D0
:06033300BDD075BED175BE
:06033900BFD475C0D575AC
:06033F00C1D675C2D7759E
:06034500C3D875C4D97590
:06034B00C5DA75C6DB7582
:06035100C7DC75C8DD7574
:06035700C9DE75CAE07565
:06035D00CBE175CCE27556
:06036300CDE475CEE67545
:06036900CFE775D0E87536
:06036F00D1E975D2EA7528
:06037500D3EB75D4EC751A
:06037B00D5ED75D6EE750C
:06038100D7EF75D8F075FE
:06038700D9F175DAF275F0
:06038D00DBF375DCF475E2
:06039300DDF675DEF775D2
:06039900DFF875E0F975C4
:06039F00E1FA75E2FB75B6
:0603A500E3FC75E4FD75A8
:0603AB00E5FE75E6FFD23D
:0403B100E7D2E8D2D5
:0403B500E9D2EAD2CD
:0403B900EBD2ECD2C5
:0403BD00EDD2EED2BD
:0403C100EFD2F0D2B5
:0403C500F1D2F2D2AD
:0403C900F3D2F4D2A5
:0403CD00F5D2F6D29D
:0403D100F7D2F8D295
:0403D500F9D2FAD28D
:0403D900FBD2FCD285
:0403DD00FDD2FED27D
:0403E100FFD200D275
:0403E50001D202D26D
:0403E90003D204D265
:0403ED0005D206D25D
:0403F10007D208D255
:0403F50009D20AD24D
:0403F9000BD20CD245
:0403FD000DD20ED23D
:040401000FD210D234
:0404050011D212D22C
:0404090013D214D224
:04040D0015D216D21C
:0404110017D218D214
:0404150019D21AD20C
:040419001BD21CD204
:04041D001DD21ED2FC
:040421001FD220D2F4
:0404250021D222D2EC
:0404290023D224D2E4
:04042D0025D226D2DC
:0404310027D228D2D4
:0404350029D22AD2CC
:040439002BD22CD2C4
:04043D002DD22ED2BC
:040441002FD230D2B4
:0304450031D2327F
:0C08F900C020C0E0C0F0C082C083C0027C
:0E090500C003C004C005C006C007C000C0018A
:05091300C0D075D0000A
:08091800E58B20E7FB758B86DF
:07092000E58B20E7FBAA8C28
:08092700E58B20E7FB758B82D4
:07092F00E58B20E7FBAB8C18
:08093600E58B20E7FB758B84C3
:0A093E00E58B20E7FBAC8CEA30E10A
:0E0948000FC002C003C004120EF3D004D0038F
:02095600D002CD
:0E095800EA30E20FC002C003C004120A4FD002
:0509660004D003D002E3
:0E096B00EB30E00FC002C003C004120A67D0D8
:0509790004D003D002D0
:0E097E00EB30E10BC002C004120C52D004D0CA
:01098C000268
:0B098D00EC30E207C002120E2BD0027B
:07099800EA30E003120ECB70
:0E099F00D0D0D001D000D007D006D005D004B3
:0D09AD00D003D002D083D082D0F0D0E0D0B3
:0209BA002032E9
:0E09BC00C0E0C0F0C002C003C0D075D000740F
:0A09CA008055DFFABA8055C22BAA4F
:0A09D4009B7B00C3E4950A74808544
:0A09DE000BF063F08095F0501A054D
:0609E8000EE4B50E02054D
:0109EE000FF9
:0709EF00E50E450F70068ABA
:0509F600108B118025AB
:0609FB008A128B13801F1D
:0A0A0100C3E4950874808509F063D2
:0A0A0B00F08095F0500A050CE4B5E8
:060A15000C09050D80052F
:050A1B00E58B20E7FB64
:060A2000758BA2758C012C
:0A0A2600744055DFFABA4002C22CFA
:0A0A3000742055DFFABA2002C22D2F
:0A0A3A00741055DFFABA1002C22E44
:0B0A4400D0D0D003D002D0F0D0E032C0
:030A4F007521020C
:090A5200E58B20E7FB758B0175B3
:060A5B008C0175310075ED
:060A61003203753303228D
:090A6700E58B20E7FB758B0E7591
:020A70008C00F8
:080A7200E58B20E7FB758B9179
:0A0A7A00E58B20E7FBAA8C7405B59C
:020A8400310E31
:090A8600E58B20E7FB758B008570
:030A8F00258C753E
:020A9200310031
:040A9400EA30E20F53
:090A9800E58B20E7FB758B11755D
:060AA1008C0075310022FB
:040AA700EA30E41934
:090AAB00E58B20E7FB758B11754A
:020AB4008C08AC
:090AB600E58B20E7FB758B11753F
:050ABF008C8075310080
:070AC400E5316003020BAEF7
:070ACB00EA20E003020BAE7C
:040AD20075162275FE
:060AD600170075184075C1
:0A0ADC001408E4F515758220C0022D
:0A0AE600120EFFD002AB247C00AE1C
:0A0AF000257D00ED2BFBEE3CFC8B96
:040AFA00248C25AB78
:0A0AFE00267C00AE277D00ED2BFBE7
:080B0800EE3CFC8B268C27ABB0
:0A0B1000287C00AE297D00ED2BFBD0
:080B1A00EE3CFC8B288C29E560
:090B220023FB24F45003020BA78D
:070B2B00EB2B2B900B327342
:070B3200020B56020B5F02EB
:060B39000BA7020B68028D
:060B3F000BA7020B71027E
:060B45000B7A020BA7026F
:060B4B000B83020B8C027B
:050B51000B95020B9E54
:090B5600C002120FD1D002804F41
:090B5F00C0021210C8D002804649
:090B6800C00212115CD002803DB4
:090B7100C0021211F0D002803420
:090B7A00C002121231D002802BDE
:090B8300C002121364D0028022AA
:090B8C00C0021213CBD002801943
:090B9500C002121443D0028010CA
:090B9E00C002121496D002800777
:070BA700C002120FB7D002DB
:070BAE007401B53102800162
:010BB500221D
:050BB600EA30E101221C
:080BBB00E58B20E7FB758B912F
:0A0BC300E58B20E7FBE58CFA30E437
:060BCD0005EA30E0012200
:0A0BD3007A02C3E52A9440E52B9452
:0A0BDD0000403D751440E4F5158555
:030BE7002E168542
:030BEA002F17853D
:080BED003018758220C00212CD
:090BF5000F75D0027440252EF5A5
:050BFE002EE4352FF587
:060C03002FE52A24C0F5D4
:060C09002AE52B34FFF583
:060C0F002B7440252CF5BA
:050C15002CE4352DF573
:030C1A002D801A10
:040C1D00852A14858B
:030C21002B15850B
:030C24002E168504
:030C27002F1785FF
:060C2A0030187582201253
:070C30000F757A0A7531000F
:060C3700E528B52C0BE5D9
:080C3D0029B52D0643020875DC
:020C450031007C
:090C4700E58B20E7FB758B118A97
:020C50008C22F4
:090C5200E58B20E7FB758B0E75A4
:020C5B008C010A
:080C5D00E58B20E7FB758B918C
:0A0C6500E58B20E7FBAA8C7403B5B1
:020C6F00320C45
:090C7100E58B20E7FB758B117582
:030C7A008C1022B9
:040C7D00EA30E50B69
:090C8100E58B20E7FB758B117572
:020C8A008C409C
:040C8C00EA30E20B5D
:090C9000E58B20E7FB758B117563
:020C99008C00CD
:030C9B00020C9EAA
:050C9E0075340075161D
:050CA300347517007517
:070CA8001840751401E4F58A
:090CAF0015758201120EFFE4B577
:040CB8003402800E74
:070CBC007402B53402800A46
:070CC3007403B5340B800639
:030CCA00020CD445
:030CCD00020D878E
:030CD000020DAB67
:010CD30022FE
:040CD40075163575E7
:060CD800170075184075BD
:090CDE001402E4F51575820112FF
:090CE7000EFFAA358A82C0021238
:0E0CF000155AAB82AC83ADF0FEE4C0E0C0E06C
:0E0CFE00C0E0C0E08B828C838DF0EE1214C833
:0D0D0C00AB82E58124FCF581D002EB600D87
:090D1900E58B20E7FB758BA0754A
:040D22008C01800BB5
:090D2600E58B20E7FB758BA0753D
:020D2F008C0036
:060D3100750801E4F5095C
:090D3700E58B20E7FB758B947538
:050D40008C00759B0012
:0A0D45007401B50C06E4B50D028040
:010D4F0002A1
:020D500080F32E
:020D52008A9B7A
:0A0D54007402B50C06E4B50D028030
:010D5E000292
:020D5F0080F31F
:030D610085369B39
:0A0D64007403B50C06E4B50D02801F
:010D6E000282
:020D6F0080F30F
:050D7100E4F50CF50D96
:090D7600E58B20E7FB758B9475F9
:060D7F008C01E4F508F50B
:020D8500092241
:050D8700753700751630
:050D8C0037751700752A
:070D91001840751401E4F5A0
:070D980015758201120EFF28
:090D9F00E58B20E7FB758B9285C2
:030DA800378C2263
:0A0DAB007538007539007A877B86E1
:040DB5007516387502
:060DB900170075184075DB
:0A0DBF001401E4F515758201C0026D
:070DC900C003120EFF7516B6
:050DD0003975170075E4
:070DD5001840751401E4F55C
:0C0DDC0015758201120EFFD003D00274C6
:080DE80001B538047A847B8315
:090DF000E58B20E7FB758B85758E
:020DF9008C016B
:080DFB00E58B20E7FB8B8B85E3
:020E0300398C28
:080E0500E58B20E7FB8A8B75E9
:060E0D008C017BD47C3057
:090E13008B058C061BBBFF011CC2
:040E1C00ED4E70F334
:080E2000E58B20E7FB8A8B75CE
:030E28008C002219
:090E2B00E58B20E7FB758B0E75C9
:020E34008C022E
:080E3600E58B20E7FB758B94AE
:0A0E3E00E58B20E7FBAA8C7403B5D6
:020E4800330C69
:090E4A00E58B20E7FB758B1475A4
:030E53008C2022CE
:040E5600EA30E60B8D
:090E5A00E58B20E7FB758B147594
:020E63008C8081
:080E6500E58B20E7FB758B967D
:0A0E6D00E58B20E7FBAA8CBA4002D7
:020E7700800DEC
:090E7900E58B20E7FB758B167573
:040E82008C1080034D
:030E8600120E95B4
:090E8900E58B20E7FB758B147565
:030E92008C0022AF
:050E9500753A0075161E
:050E9A003A7517007518
:070E9F001840751401E4F591
:0A0EA60015758202120EFF7401B5EB
:050EB0003A03020EB63A
:010EB500221A
:040EB60075163B75FD
:060EBA00170075184075D9
:090EC0001402E4F515758202022A
:020EC9000F75A3
:070ECB0075D90075DA00750E
:060ED200DB0075DC00539B
:060ED800D07F75BE00434F
:060EDE00A52075D9FF7587
:060EE400DA7F75DBFF75EB
:060EEA00DCFF75BE0E43A3
:030EF000D080228D
:080EF30074012514F514E43527
:040EFB0015F51522B2
:090EFF00AA82E5144515606D8A14
:080F08008B438BC0E4FAFBE50A
:0A0F10001424FFFCE51534FFFDE496
:040F1A00F519F51AB6
:0A0F1E00A819A91AC3E89CE99D5028
:010F28002A9E
:080F2900E58B20E7FBE519252B
:050F310016F8E51A3579
:0A0F360017F9AE18888289838EF047
:060F4000E58C1214F80517
:060F460019E4B5190205D3
:010F4C001A8A
:060F4D00AA19AB1A80CBCB
:050F5300AA19AB1A759C
:020F58008B000C
:0A0F5A00E58B20E7FBEA2516FAEB11
:0A0F64003517FBAC188A828B838CD2
:060F6E00F0E58C0214F80E
:010F7400225A
:080F7500AA82E514451560395C
:0A0F7D00E58B20E7FB8A8B7A007BEE
:010F87000069
:0A0F88008A048B05C3EC9514ED9567
:090F9200155021EA2516FCEB358F
:0A0F9B0017FDAE188C828D838EF0D6
:050FA500121565F58C3A
:0C0FAA00E58B20E7FB0ABA00D50B80D2D3
:010FB6002218
:090FB700E58B20E7FB758B0E753C
:020FC0008C00A3
:090FC200E58B20E7FB758B11752E
:060FCB008C2075310422A8
:0E1610001201011000000040224E01000000F7
:04161E0001020001C4
:0916220009020020010100800F03
:09162B00090400000200000000A7
:071634000705810200400AD6
:07163B000705020200400A4E
:041642000403090490
:0E1646002403520044004800320020005300EC
:0E1654006300690065006E00630065002C00F5
:0816620020004C004C00430085
:0E166A00260353004800410072004B00200090
:0E1678004400720069007600650072002000D8
:0A16860042006F0061007200640072
:031690004216807F
:0316930046168078
:031696006A168051
:0704480075338075348175E6
:06044F003582753683754D
:0604550037877538887539
:06045B003989753A8A752B
:060461003B8B753C8C751D
:060467003D8D753E8E750F
:06046D003F8F7540907501
:06047300419175429275F3
:06047900439375449475E5
:06047F00459575469675D7
:06048500479775489875C9
:06048B004999754A9A75BB
:060491004B9B754C9C75AD
:060497004D9D754E9E759F
:06049D004F9F7550A07591
:0604A30051A17552A17584
:0604A90053A27554A27578
:0604AF0055A37556A3756C
:0604B50057A47558A5755F
:0604BB0059A6755AA77551
:0604C1005BA8755CA97543
:0604C7005DAA755EB07530
:0604CD005FB17560B2751D
:0604D30061B37562B6750D
:0604D90063B77564B875FD
:0604DF0065B97566BA75EF
:0604E50067BB7568BC75E1
:0604EB0069BD756ABE75D3
:0604F1006BC0756CC175C3
:0604F7006DC2756EC375B5
:0604FD006FC47570C575A7
:0605030071C67572C87597
:0605090073C97574CA7588
:06050F0075CB7576CC757A
:0605150077CD7578D0756A
:06051B0079D1757AD47558
:060521007BD5757CD67548
:060527007DD7757ED8753A
:06052D007FD97580DA752C
:0605330081DB7582DC751E
:0605390083DD7584DE7510
:06053F0085E07586E17500
:0605450087E27588E475F1
:06054B0089E6758AE775E0
:060551008BE8758CE975D2
:060557008DEA758EEB75C4
:06055D008FEC7590ED75B6
:0605630091EE7592EF75A8
:0605690093F07594F1759A
:06056F0095F27596F3758C
:0605750097F47598F6757D
:06057B0099F7759AF8756E
:060581009BF9759CFA7560
:060587009DFB759EFC7552
:06058D009FFD75A0FE7544
:05059300A1FFD2A2D27D
:04059800A3D2A4D274
:04059C00A5D2A6D26C
:0405A000A7D2A8D264
:0405A400A9D2AAD25C
:0405A800ABD2ACD254
:0405AC00ADD2AED24C
:0405B000AFD2B0D244
:0405B400B1D2B2D23C
:0405B800B3D2B4D234
:0405BC00B5D2B6D22C
:0405C000B7D2B8D224
:0405C400B9D2BAD21C
:0405C800BBD2BCD214
:0405CC00BDD2BED20C
:0405D000BFD2C0D204
:0405D400C1D2C2D2FC
:0405D800C3D2C4D2F4
:0405DC00C5D2C6D2EC
:0405E000C7D2C8D2E4
:0405E400C9D2CAD2DC
:0405E800CBD2CCD2D4
:0405EC00CDD2CED2CC
:0405F000CFD2D0D2C4
:0405F400D1D2D2D2BC
:0405F800D3D2D4D2B4
:0405FC00D5D2D6D2AC
:04060000D7D2D8D2A3
:04060400D9D2DAD29B
:04060800DBD2DCD293
:04060C00DDD2DED28B
:04061000DFD2E0D283
:04061400E1D2E2D27B
:04061800E3D2E4D273
:04061C00E5D2E6D26B
:04062000E7D2E8D263
:04062400E9D2EAD25B
:04062800EBD2ECD253
:01062C00EDE0
:090FD100E524700FE525700BE525
:0A0FDA002870077402B52902800395
:030FE400120FB732
:070FE700AA22BA8002800D6E
:050FEE00BA8102802819
:050FF300BA82028048F3
:030FF8000210AB39
:080FFB00E5267004E5276006FD
:06100300120FB70210AE4F
:04100900752E9B7530
:03100D002F167526
:071010003080752A02E4F5AF
:041017002B0210AEEA
:0A101B007404B52108E5267004E511
:031025002760063B
:06102800120FB70210AE2A
:04102E00752E9B750B
:031032002F167501
:071035003080752A02E4F58A
:04103C002B0210AEC5
:091040007404B52104E5266005E5
:05104900120FB78060EA
:0A104E007481B527277403B5321131
:04105800752E9975E3
:03105C002F1675D7
:07105F003080752A02E4F560
:031066002B804597
:04106900752E9B75D0
:03106D002F1675C6
:071070003080752A02E4F54F
:031077002B803497
:0A107A007402B527277403B5331183
:04108400752E9975B7
:031088002F1675AB
:07108B003080752A02E4F534
:031092002B801997
:04109500752E9B75A4
:031099002F16759A
:07109C003080752A02E4F523
:0310A3002B800897
:0510A600120FB78003EA
:0310AB00120FB76A
:0610AE007404B5310122BB
:0910B400E54620E7FB75461175C5
:0710BD004740753101E4F525
:0410C4002CF52D22B8
:0A10C8007404B5211AE522FA601540
:0510D200BA01028010CC
:0910D700E524700CE5267008E523
:0710E000287004E5296005FA
:0510E700120FB7805359
:0A10EC007402B5224BE5257047742D
:0610F60081B52702800510
:0510FC007402B5273B62
:051101007481B5271BFD
:09110600E54620E7FB75460E7575
:02110F00470196
:09111100E54620E7FB7546117567
:07111A004740753200801E02
:09112100E54620E7FB75460E755A
:02112A0047027A
:09112C00E54620E7FB7546147549
:0711350047807533008003C1
:03113C00120FB7D8
:09113F00E54620E7FB75460E753C
:0811480047007404B5310122D7
:09115000E54620E7FB7546117528
:03115900474822E2
:0A115C007404B5211AE522FA6015AB
:05116600BA0102801037
:09116B00E524700CE5267008E58E
:07117400287004E529600565
:05117B00120FB78053C4
:0A1180007402B5224BE52570477498
:06118A0081B5270280057B
:051190007402B5273BCD
:051195007481B5271B69
:09119A00E54620E7FB75460E75E1
:0211A300470102
:0911A500E54620E7FB75461175D3
:0711AE004710753203801E9B
:0911B500E54620E7FB75460E75C6
:0211BE004702E6
:0911C000E54620E7FB75461475B5
:0711C900472075330380038A
:0311D000120FB744
:0911D300E54620E7FB75460E75A8
:0811DC0047007404B531012243
:0911E400E54620E7FB7546117594
:0311ED004748224E
:0911F000E5227019E5267015E5F1
:0811F900277011E528700DE5D7
:08120100297009E5247005E5E0
:041209002530E703A2
:03120D00120FB706
:08121000753105E52560057547
:04121800210380032B
:03121C0075210237
:06121F007404B531012248
:09122500E54620E7FB7546117552
:03122E004748220C
:0A123100E524FA24FA500302130F1B
:07123B00EA2A2A9012427317
:0712420002130F0212540217
:06124900126B02128F027D
:05124F0012B70212CDF0
:04125400752E10756E
:031258002F1675D9
:09125B003080901610E493FA8A29
:051264002A752B0002B9
:0212690013125E
:04126B00752E227545
:03126F002F1675C2
:0B1272003080901624E493FA7B00907B
:0C127D001625E493FD7C00EC2AF52AED18
:061289003BF52B021312DD
:0A128F00E52575F003A42490F8860D
:061299002E08862F0886D6
:04129F0030AA2EAB98
:0A12A3002FAC308A828B838CF0128E
:0612AD001565FA8A2A759E
:0412B3002B00805B31
:0412B700752E2B75F0
:0312BB002F167576
:0912BE00308090162BE493FA8AAB
:0612C7002A752B00804592
:0712CD007481B525028005C4
:0512D4007402B5253194
:0712D9007481B52516752E86
:0312E00034752F33
:0512E30016753080903B
:0812E8001634E493FA8A2A751A
:0412F0002B00801E31
:0412F400752E3B75A3
:0312F8002F167539
:0912FB00308090163BE493FA8A5E
:061304002A752B00800891
:05130A00120FB7800383
:03130F00120FB703
:071312007401B52402801AEA
:071319007402B524028013E9
:071320007403B52402800CE8
:071327007404B524028005E7
:05132E007405B5241751
:0A133300AA297B00C3EA952AEB9576
:08133D002B500AE5287006851B
:03134500282A85CE
:02134800292B4F
:06134A007404B53101221C
:09135000E54620E7FB7546117526
:071359004740753101E4F586
:041360002CF52D2219
:0A1364007480B5221BE5247017E524
:08136E00257013E526700FE560
:0A13760027700BE52870077401B51D
:0413800029028005B9
:05138400120FB78028E4
:071389007404B5210F752E5D
:0313900099752F1D
:051393001675308075A5
:051398002A01E4F52B21
:07139D007403B5210F752E4A
:0313A4009B752F07
:0513A700167530807591
:0513AC002A01E4F52B0D
:0613B1007404B5310122B5
:0913B700E54620E7FB75461175BF
:0713C0004740753101E4F51F
:0413C7002CF52D22B2
:0713CB007402B52102801E2F
:0913D200E522701AE5267016E50B
:0813DB00277012E528700EE5F1
:0813E30029700AE5247006E5FB
:0513EB002524FE500561
:0513F000120FB7803C64
:0813F500E525602F7521047548
:0513FD00320075330011
:09140200E54620E7FB75460E7576
:02140B00470197
:09140D00E54620E7FB7546127567
:051416004720120C52FA
:09141B00E54620E7FB75460E755D
:0414240047008009F4
:071428007521037532037505
:02142F00330385
:061431007404B531012234
:09143700E54620E7FB754611753E
:03144000474822F8
:0A1443007404B521207481B5221B4A
:09144D00E5247017E5257013E594
:0814560026700FE527700BE57D
:0A145E002870077401B5290280050B
:05146800120FB7800F18
:04146D00752E9B75C8
:031471002F1675BE
:071474003080752A01E4F548
:01147B002B45
:06147C007404B5310122E9
:09148200E54620E7FB75461175F3
:07148B004740753101E4F553
:041492002CF52D22E6
:0A1496007401B52218E5287014E572
:0814A000297010E524700CE531
:0814A800257008E5267004E53B
:0314B000276003AF
:0314B300120FB75E
:0614B6007404B5310122AF
:0914BC00E54620E7FB75461175B9
:0314C50047482273
:0216990001004E
:02169B0000004D
:06003700E478FFF6D8FD9D
:080015007900E94400601B7A48
:05001D000090169D7823
:030022000075A0C6
:0A00250000E493F2A308B8000205FE
:08002F00A0D9F4DAF275A0FF7C
:0E14C800FFA881181812152FD2D133E6400765
:0714D60030E70B75820122D3
:0714DD0020E70675820022E2
:0214E400C2D173
:0914E600121511E97003F58222D0
:0414EF0030D101B344
:0514F300E433F5822244
:0E14F80020F71030F6118883A88220F507F641
:05150600A883758300BD
:01150B0022BD
:03150C00F280F773
:02150F00F022C8
:08003D007800E84400600A7934
:030045000075A0A3
:0600480000E4F309D8FCFE
:08004E007800E84400600C7921
:0B00560000900000E4F0A3D8FCD9FAF1
:0E1511007901AA82E68F82B5821318E6B5F042
:0E151F000E18E6B5830918E68A82B5820279B5
:01152D0000BD
:01152E00229A
:0E152F00B4800FE5F0700AE5837006E5827067
:03153D00027F002A
:01154000EFBB
:0E154100B6801518B6001018B6000B18B600CC
:07154F0006080808760022DF
:01155600088C
:01155700088B
:01155800088A
:01155900226F
:030008007581BC43
:0A000B001215BDE582600302000338
:0B155A00E4AC82FBFAF9748602158AEB
:0E15650020F71430F6148883A88220F507E6DC
:06157300A883758300222D
:03157900E280F716
:03157C00E49322D3
:02157F00E02268
:09158100FCABF0AA83A982749E60
:02158A00C2D1CC
:08158C00F5821215940215C14D
:021594007804D9
:0E159600EC700DC9CACBFCE58224F8F582D8B2
:0215A400F12232
:0215A6007820AB
:0E15A80020E7111582C3E933F9EA33FAEB3379
:0615B600FBEC33FCD8EC55
:0115BC00220C
:0415BD007582002211
:0615C100B98003EA13B338
:0E15C7004010EA2401FAE43BFBE43CFC500433
:0415D5007C8005828F
:0915D900BC000EBB000BBA0008B7
:0815E200E4F5F0F583F5822227
:0E15EA00A2D1E582138CF092F78B838A8222C5
:0D15F800E4F583F58275F080F4A2D1132292
:0B160500E4F583F58275F0C0747F22CD
:00000001FF
